{
  "contractName": "Pool",
  "abi": [
    {
      "inputs": [
        {
          "internalType": "uint256",
          "name": "duration",
          "type": "uint256"
        }
      ],
      "payable": false,
      "stateMutability": "nonpayable",
      "type": "constructor"
    },
    {
      "constant": false,
      "inputs": [
        {
          "internalType": "uint256",
          "name": "state",
          "type": "uint256"
        }
      ],
      "name": "changeState",
      "outputs": [],
      "payable": false,
      "stateMutability": "nonpayable",
      "type": "function"
    },
    {
      "constant": false,
      "inputs": [],
      "name": "recieveToPool",
      "outputs": [],
      "payable": true,
      "stateMutability": "payable",
      "type": "function"
    },
    {
      "constant": false,
      "inputs": [
        {
          "internalType": "uint256",
          "name": "matchRatio",
          "type": "uint256"
        },
        {
          "internalType": "address payable",
          "name": "projectOwner",
          "type": "address"
        }
      ],
      "name": "payoutPoolMatch",
      "outputs": [],
      "payable": true,
      "stateMutability": "payable",
      "type": "function"
    }
  ],
  "bytecode": "0x608060405234801561001057600080fd5b506040516104a33803806104a38339818101604052602081101561003357600080fd5b810190808051906020019092919050505033600360006101000a81548173ffffffffffffffffffffffffffffffffffffffff021916908373ffffffffffffffffffffffffffffffffffffffff1602179055508042016000819055506000600160006101000a81548160ff021916908360028111156100ad57fe5b0217905550506103e1806100c26000396000f3fe6080604052600436106100345760003560e01c80631c1eb764146100395780632d1f0e3014610043578063b00741cb14610091575b600080fd5b6100416100cc565b005b61008f6004803603604081101561005957600080fd5b8101908080359060200190929190803573ffffffffffffffffffffffffffffffffffffffff169060200190929190505050610169565b005b34801561009d57600080fd5b506100ca600480360360208110156100b457600080fd5b810190808035906020019092919050505061025e565b005b600034905080600460003373ffffffffffffffffffffffffffffffffffffffff1673ffffffffffffffffffffffffffffffffffffffff1681526020019081526020016000205401600460003373ffffffffffffffffffffffffffffffffffffffff1673ffffffffffffffffffffffffffffffffffffffff168152602001908152602001600020819055508060026000828254019250508190555050565b600360009054906101000a900473ffffffffffffffffffffffffffffffffffffffff1673ffffffffffffffffffffffffffffffffffffffff163373ffffffffffffffffffffffffffffffffffffffff161461020f576040517f08c379a00000000000000000000000000000000000000000000000000000000081526004018080602001828103825260248152602001806103896024913960400191505060405180910390fd5b8073ffffffffffffffffffffffffffffffffffffffff166108fc60025484029081150290604051600060405180830381858888f19350505050158015610259573d6000803e3d6000fd5b505050565b600360009054906101000a900473ffffffffffffffffffffffffffffffffffffffff1673ffffffffffffffffffffffffffffffffffffffff163373ffffffffffffffffffffffffffffffffffffffff1614610304576040517f08c379a00000000000000000000000000000000000000000000000000000000081526004018080602001828103825260248152602001806103896024913960400191505060405180910390fd5b6001811415610385576000544210610384576040517f08c379a000000000000000000000000000000000000000000000000000000000815260040180806020018281038252601f8152602001807f6f6e676f696e672070686173652063616e6e6f7420626520737461727465640081525060200191505060405180910390fd5b5b5056fe43616e6e6f7420616c6c6f7720616363657373206f74686572207468616e206f776e6572a265627a7a72315820f6f8cc02701cd49d4e016b5e0835de0ee1356be0ad9b88aecf49b60b7b64078a64736f6c63430005100032",
  "source": "// SPDX-License-Identifier: GPL-3.0\n\npragma solidity >=0.4.22 <0.9.0;\n\n\ncontract Pool {\n\n    enum State {initialized, ongoing, completed}\n    \n   \n    uint256 raiseTill;\n    State currentState;\n    uint poolValue;\n    address owner;\n    mapping(address => uint) sponsorFunds;\n    \n    //modifier to allow access only to the owner\n    modifier isOwner() {\n        require(msg.sender == owner, \"Cannot allow access other than owner\");\n        _;\n    }\n    \n    //modifier to allow the function to proceed only if contract is in intended state\n    modifier isState(State reqState) {\n        require(currentState == reqState, \"Contract not in required state\");\n        _;\n    }\n    \n    //initializes the owner of the contract and currentState of the contract to initialized.\n    constructor (uint duration) public {\n        owner = msg.sender;\n        raiseTill=block.timestamp+duration;\n        currentState = State.initialized;\n    }\n    \n    //function to change the currentState variable of the contract based on comparing block timestamp \n    //to constant raiseBy and startRaisingFrom to meet isState modifier requirements. Currently only\n    //the owner can change the phase but chainlink keeper can be implemented later to automate the \n    //change state process.\n    //TODO check the access specifier\n   function changeState(uint state) public isOwner {\n        if(state == 1){\n            require(block.timestamp < raiseTill, \"ongoing phase cannot be started\");\n        }\n    }\n \n    //function to recieve funds from sponsors to make up the pool\n    function recieveToPool () public payable {\n        uint amountRecieved = msg.value;\n        \n            sponsorFunds[msg.sender] = sponsorFunds[msg.sender] + amountRecieved;\n        \n        //poolValue redundatn as same can be achieved by this.balance\n        poolValue += amountRecieved;\n    }\n    \n    //function to pay the project owner his match by multiplying the match ratio with the total poolValue\n    function payoutPoolMatch(uint matchRatio, address payable projectOwner) public payable isOwner {\n        projectOwner.transfer(matchRatio*poolValue);\n    }\n \n \n}",
  "sourcePath": "/mnt/c/Users/pk/Downloads/Quadratic-Funding-develop-client-side/contracts/Pool.sol",
  "compiler": {
    "name": "solc",
    "version": "0.5.16+commit.9c3226ce.Emscripten.clang"
  },
  "schemaVersion": "3.4.3",
  "updatedAt": "2021-11-21T06:49:56.690Z",
  "devdoc": {
    "methods": {}
  },
  "userdoc": {
    "methods": {}
  }
}