{
  "contractName": "Project",
  "abi": [
    {
      "inputs": [
        {
          "internalType": "address payable",
          "name": "projectOwner",
          "type": "address"
        },
        {
          "internalType": "uint256",
          "name": "pID",
          "type": "uint256"
        },
        {
          "internalType": "string",
          "name": "imag",
          "type": "string"
        },
        {
          "internalType": "string",
          "name": "des",
          "type": "string"
        }
      ],
      "payable": false,
      "stateMutability": "nonpayable",
      "type": "constructor"
    },
    {
      "constant": true,
      "inputs": [],
      "name": "currentBal",
      "outputs": [
        {
          "internalType": "uint256",
          "name": "",
          "type": "uint256"
        }
      ],
      "payable": false,
      "stateMutability": "view",
      "type": "function"
    },
    {
      "constant": true,
      "inputs": [
        {
          "internalType": "address",
          "name": "",
          "type": "address"
        }
      ],
      "name": "funds",
      "outputs": [
        {
          "internalType": "uint256",
          "name": "",
          "type": "uint256"
        }
      ],
      "payable": false,
      "stateMutability": "view",
      "type": "function"
    },
    {
      "constant": true,
      "inputs": [],
      "name": "owner",
      "outputs": [
        {
          "internalType": "address payable",
          "name": "",
          "type": "address"
        }
      ],
      "payable": false,
      "stateMutability": "view",
      "type": "function"
    },
    {
      "constant": false,
      "inputs": [
        {
          "internalType": "uint256",
          "name": "state",
          "type": "uint256"
        }
      ],
      "name": "changeState",
      "outputs": [],
      "payable": false,
      "stateMutability": "nonpayable",
      "type": "function"
    },
    {
      "constant": false,
      "inputs": [],
      "name": "getSquaredSqrtFundsSum",
      "outputs": [
        {
          "internalType": "uint256",
          "name": "",
          "type": "uint256"
        }
      ],
      "payable": false,
      "stateMutability": "nonpayable",
      "type": "function"
    },
    {
      "constant": false,
      "inputs": [],
      "name": "contribute",
      "outputs": [],
      "payable": true,
      "stateMutability": "payable",
      "type": "function"
    },
    {
      "constant": false,
      "inputs": [],
      "name": "payout",
      "outputs": [],
      "payable": true,
      "stateMutability": "payable",
      "type": "function"
    }
  ],
  "bytecode": "0x60806040523480156200001157600080fd5b5060405162000c2738038062000c27833981810160405260808110156200003757600080fd5b810190808051906020019092919080519060200190929190805160405193929190846401000000008211156200006c57600080fd5b838201915060208201858111156200008357600080fd5b8251866001820283011164010000000082111715620000a157600080fd5b8083526020830192505050908051906020019080838360005b83811015620000d7578082015181840152602081019050620000ba565b50505050905090810190601f168015620001055780820380516001836020036101000a031916815260200191505b50604052602001805160405193929190846401000000008211156200012957600080fd5b838201915060208201858111156200014057600080fd5b82518660018202830111640100000000821117156200015e57600080fd5b8083526020830192505050908051906020019080838360005b838110156200019457808201518184015260208101905062000177565b50505050905090810190601f168015620001c25780820380516001836020036101000a031916815260200191505b50604052505050826001819055508160029080519060200190620001e892919062000271565b5080600390805190602001906200020192919062000271565b50836000806101000a81548173ffffffffffffffffffffffffffffffffffffffff021916908373ffffffffffffffffffffffffffffffffffffffff1602179055506000600560006101000a81548160ff021916908360028111156200026257fe5b02179055505050505062000320565b828054600181600116156101000203166002900490600052602060002090601f016020900481019282601f10620002b457805160ff1916838001178555620002e5565b82800160010185558215620002e5579182015b82811115620002e4578251825591602001919060010190620002c7565b5b509050620002f49190620002f8565b5090565b6200031d91905b8082111562000319576000816000905550600101620002ff565b5090565b90565b6108f780620003306000396000f3fe6080604052600436106100705760003560e01c80638da5cb5b1161004e5780638da5cb5b146100d5578063b00741cb1461012c578063d7bb99ba14610167578063e2ae93fb1461017157610070565b8063173b8edd1461007557806363bd1d4a146100a05780636fc44344146100aa575b600080fd5b34801561008157600080fd5b5061008a6101d6565b6040518082815260200191505060405180910390f35b6100a8610299565b005b3480156100b657600080fd5b506100bf61044b565b6040518082815260200191505060405180910390f35b3480156100e157600080fd5b506100ea610451565b604051808273ffffffffffffffffffffffffffffffffffffffff1673ffffffffffffffffffffffffffffffffffffffff16815260200191505060405180910390f35b34801561013857600080fd5b506101656004803603602081101561014f57600080fd5b8101908080359060200190929190505050610476565b005b61016f61059f565b005b34801561017d57600080fd5b506101c06004803603602081101561019457600080fd5b81019080803573ffffffffffffffffffffffffffffffffffffffff1690602001909291905050506107d1565b6040518082815260200191505060405180910390f35b600080600090505b6009805490508110156102865761026a60076000600984815481106101ff57fe5b9060005260206000200160009054906101000a900473ffffffffffffffffffffffffffffffffffffffff1673ffffffffffffffffffffffffffffffffffffffff1673ffffffffffffffffffffffffffffffffffffffff168152602001908152602001600020546107e9565b60086000828254019250508190555080806001019150506101de565b506102946008546002610830565b905090565b6000809054906101000a900473ffffffffffffffffffffffffffffffffffffffff1673ffffffffffffffffffffffffffffffffffffffff163373ffffffffffffffffffffffffffffffffffffffff161461033e576040517f08c379a000000000000000000000000000000000000000000000000000000000815260040180806020018281038252602481526020018061089f6024913960400191505060405180910390fd5b600280600281111561034c57fe5b600560009054906101000a900460ff16600281111561036757fe5b146103da576040517f08c379a000000000000000000000000000000000000000000000000000000000815260040180806020018281038252601e8152602001807f436f6e7472616374206e6f7420696e207265717569726564207374617465000081525060200191505060405180910390fd5b60004790506000809054906101000a900473ffffffffffffffffffffffffffffffffffffffff1673ffffffffffffffffffffffffffffffffffffffff166108fc829081150290604051600060405180830381858888f19350505050158015610446573d6000803e3d6000fd5b505050565b60065481565b6000809054906101000a900473ffffffffffffffffffffffffffffffffffffffff1681565b6000809054906101000a900473ffffffffffffffffffffffffffffffffffffffff1673ffffffffffffffffffffffffffffffffffffffff163373ffffffffffffffffffffffffffffffffffffffff161461051b576040517f08c379a000000000000000000000000000000000000000000000000000000000815260040180806020018281038252602481526020018061089f6024913960400191505060405180910390fd5b600181141561059c57600454421061059b576040517f08c379a000000000000000000000000000000000000000000000000000000000815260040180806020018281038252601f8152602001807f6f6e676f696e672070686173652063616e6e6f7420626520737461727465640081525060200191505060405180910390fd5b5b50565b60018060028111156105ad57fe5b600560009054906101000a900460ff1660028111156105c857fe5b1461063b576040517f08c379a000000000000000000000000000000000000000000000000000000000815260040180806020018281038252601e8152602001807f436f6e7472616374206e6f7420696e207265717569726564207374617465000081525060200191505060405180910390fd5b60003490506000600760003373ffffffffffffffffffffffffffffffffffffffff1673ffffffffffffffffffffffffffffffffffffffff1681526020019081526020016000205414156107375760093390806001815401808255809150509060018203906000526020600020016000909192909190916101000a81548173ffffffffffffffffffffffffffffffffffffffff021916908373ffffffffffffffffffffffffffffffffffffffff1602179055505080600760003373ffffffffffffffffffffffffffffffffffffffff1673ffffffffffffffffffffffffffffffffffffffff168152602001908152602001600020819055506107bd565b80600760003373ffffffffffffffffffffffffffffffffffffffff1673ffffffffffffffffffffffffffffffffffffffff1681526020019081526020016000205401600760003373ffffffffffffffffffffffffffffffffffffffff1673ffffffffffffffffffffffffffffffffffffffff168152602001908152602001600020819055505b806006600082825401925050819055505050565b60076020528060005260406000206000915090505481565b600080600283816107f657fe5b04905060008090505b80821461082657819050600282858161081457fe5b0483018161081e57fe5b0491506107ff565b8192505050919050565b6000808214156108435760019050610898565b60016002838161084f57fe5b06141561086c57826108648460018503610830565b029050610898565b610880836002848161087a57fe5b04610830565b610894846002858161088e57fe5b04610830565b0290505b9291505056fe43616e6e6f7420616c6c6f7720616363657373206f74686572207468616e206f776e6572a265627a7a723158205e1cd83ec4951609dafc4b3127e6909f65a06790baa89bfdfde1d6a2788e6a6a64736f6c63430005100032",
  "source": "// SPDX-License-Identifier: GPL-3.0\n\npragma solidity >=0.4.22 <0.9.0;\n\n/**\n * @title Storage\n * @dev Store & retrieve value in a variable\n */\ncontract Project {\n\n    enum State {initialized, ongoing, completed}\n\n    address payable public owner;                                                                  //to store owner, here = the actual Project owner\n    uint256 projectID;\n    string image;\n    string description;                                                              //unused variable, may find a use later\n    uint256 raiseTill;\n    State currentState;\n    uint256 public currentBal;\n    mapping(address => uint) public funds;\n    uint sqrtFundsSum;\n    address[] uniqueContributors;\n    \n    //modifier to allow access only to the owner\n    modifier isOwner() {\n        require(msg.sender == owner, \"Cannot allow access other than owner\");\n        _;\n    }\n    \n    //modifier to allow the function to proceed only if contract is in intended state\n    modifier isState(State reqState) {\n        require(currentState == reqState, \"Contract not in required state\");\n        _;\n    }\n    \n    //initializes the pID of the project for identifying or mapping other project metadata\n    //to any database(eg. IPFS), the projectOwner to payout to, and the currentState to \n    //initialized\n    constructor(address payable projectOwner, uint pID, string memory imag, string memory des) public {\n        projectID = pID;\n        image=imag;\n        description=des;\n        owner = projectOwner;\n        currentState = State.initialized;\n    }\n    \n    //function to calculate square root of x\n    function sqrt(uint x) internal pure returns (uint){\n       uint n = x / 2;\n       uint lstX = 0;\n       while (n != lstX){\n           lstX = n;\n           n = (n + x/n) / 2; \n       }\n       return uint(n);\n   }\n   \n   //function to calculate x raised to the power p\n   function pow(uint x, uint p) internal pure returns (uint) {\n        if(p == 0)\n            return 1;\n        if(p % 2 == 1) {\n            return pow(x, p-1)*x;\n        } else {\n            return pow(x, p / 2)*pow(x, p / 2);\n        }\n    }\n    \n    //function to change the currentState variable of the contract based on comparing block timestamp \n    //to constant raiseBy and startRaisingFrom to meet isState modifier requirements. Currently only\n    //the owner can change the phase but chainlink keeper can be implemented later to automate the \n    //change state process.\n  function changeState(uint state) public isOwner {\n        if(state == 1){\n            require(block.timestamp < raiseTill, \"ongoing phase cannot be started\");\n        }\n    }\n    \n    //function to return the square of the sum of the square root of individual contributions when \n    //requested by the Qfunding contract\n    function getSquaredSqrtFundsSum() public returns (uint){\n        for(uint i = 0; i<uniqueContributors.length; i++){\n            sqrtFundsSum += sqrt(funds[uniqueContributors[i]]);\n        }\n        return pow(sqrtFundsSum, 2);\n    }\n    \n    //function to recieve contributions from people and recording it into the mapping funds. the mapping\n    //is required to reference and check if a address has already contributed some amount to prevent\n    //user from breaking his contribution into small amounts to cheat quadratic funding. \n    function contribute() public payable isState(State.ongoing) {\n        uint amountRecieved = msg.value;\n        if(funds[msg.sender] == 0){\n            uniqueContributors.push(msg.sender);\n            funds[msg.sender] = amountRecieved;\n        }else {\n            funds[msg.sender] = funds[msg.sender] + amountRecieved;\n        }\n        //currentBal variable is redundant as the same can achieve by this.balance\n        currentBal += amountRecieved;\n        \n    }\n    \n    //function to payout the funds collected in this project contract to the projectOwner\n    //TODO check with the access specifier\n     function payout() isOwner public payable isState(State.completed) {\n        uint amount = address(this).balance;\n         owner.transfer(amount);\n     }   \n}",
  "sourcePath": "/mnt/c/Users/pk/Downloads/Quadratic-Funding-develop-client-side/contracts/Project.sol",
  "compiler": {
    "name": "solc",
    "version": "0.5.16+commit.9c3226ce.Emscripten.clang"
  },
  "schemaVersion": "3.4.3",
  "updatedAt": "2021-11-21T06:49:56.701Z",
  "devdoc": {
    "details": "Store & retrieve value in a variable",
    "methods": {},
    "title": "Storage"
  },
  "userdoc": {
    "methods": {}
  }
}