{
  "contractName": "QFunding",
  "abi": [
    {
      "inputs": [
        {
          "internalType": "uint256",
          "name": "duration",
          "type": "uint256"
        }
      ],
      "payable": false,
      "stateMutability": "nonpayable",
      "type": "constructor"
    },
    {
      "constant": true,
      "inputs": [],
      "name": "projectcount",
      "outputs": [
        {
          "internalType": "uint256",
          "name": "",
          "type": "uint256"
        }
      ],
      "payable": false,
      "stateMutability": "view",
      "type": "function"
    },
    {
      "constant": true,
      "inputs": [
        {
          "internalType": "uint256",
          "name": "",
          "type": "uint256"
        }
      ],
      "name": "projectsListed",
      "outputs": [
        {
          "internalType": "contract Project",
          "name": "",
          "type": "address"
        }
      ],
      "payable": false,
      "stateMutability": "view",
      "type": "function"
    },
    {
      "constant": true,
      "inputs": [],
      "name": "sponsorPool",
      "outputs": [
        {
          "internalType": "contract Pool",
          "name": "",
          "type": "address"
        }
      ],
      "payable": false,
      "stateMutability": "view",
      "type": "function"
    },
    {
      "constant": false,
      "inputs": [
        {
          "internalType": "uint256",
          "name": "state",
          "type": "uint256"
        }
      ],
      "name": "changeState",
      "outputs": [],
      "payable": false,
      "stateMutability": "nonpayable",
      "type": "function"
    },
    {
      "constant": false,
      "inputs": [
        {
          "internalType": "address payable",
          "name": "projectOwner",
          "type": "address"
        },
        {
          "internalType": "uint256",
          "name": "projectID",
          "type": "uint256"
        },
        {
          "internalType": "string",
          "name": "imag",
          "type": "string"
        },
        {
          "internalType": "string",
          "name": "des",
          "type": "string"
        }
      ],
      "name": "createProject",
      "outputs": [],
      "payable": false,
      "stateMutability": "nonpayable",
      "type": "function"
    },
    {
      "constant": false,
      "inputs": [],
      "name": "listprojects",
      "outputs": [
        {
          "internalType": "contract Project[]",
          "name": "",
          "type": "address[]"
        }
      ],
      "payable": false,
      "stateMutability": "nonpayable",
      "type": "function"
    },
    {
      "constant": false,
      "inputs": [],
      "name": "calandPayoutMatch",
      "outputs": [],
      "payable": false,
      "stateMutability": "nonpayable",
      "type": "function"
    }
  ],
  "bytecode": "0x608060405234801561001057600080fd5b506040516120083803806120088339818101604052602081101561003357600080fd5b810190808051906020019092919050505033600160006101000a81548173ffffffffffffffffffffffffffffffffffffffff021916908373ffffffffffffffffffffffffffffffffffffffff1602179055508042016000819055508060405161009b9061012c565b80828152602001915050604051809103906000f0801580156100c1573d6000803e3d6000fd5b50600460006101000a81548173ffffffffffffffffffffffffffffffffffffffff021916908373ffffffffffffffffffffffffffffffffffffffff1602179055506000600160146101000a81548160ff0219169083600281111561012157fe5b021790555050610139565b6104a380611b6583390190565b611a1d806101486000396000f3fe60806040523480156200001157600080fd5b5060043610620000885760003560e01c806371fc7fce116200006357806371fc7fce146200012a578063b00741cb14620002af578063c48d119314620002e0578063e75c602514620003435762000088565b8063104e22c6146200008d5780631a3b32dc14620000ad57806337fe12a514620000b9575b600080fd5b620000976200038f565b6040518082815260200191505060405180910390f35b620000b762000395565b005b620000e860048036036020811015620000d157600080fd5b8101908080359060200190929190505050620007b8565b604051808273ffffffffffffffffffffffffffffffffffffffff1673ffffffffffffffffffffffffffffffffffffffff16815260200191505060405180910390f35b620002ad600480360360808110156200014257600080fd5b81019080803573ffffffffffffffffffffffffffffffffffffffff16906020019092919080359060200190929190803590602001906401000000008111156200018a57600080fd5b8201836020820111156200019d57600080fd5b80359060200191846001830284011164010000000083111715620001c057600080fd5b91908080601f016020809104026020016040519081016040528093929190818152602001838380828437600081840152601f19601f820116905080830192505050505050509192919290803590602001906401000000008111156200022457600080fd5b8201836020820111156200023757600080fd5b803590602001918460018302840111640100000000831117156200025a57600080fd5b91908080601f016020809104026020016040519081016040528093929190818152602001838380828437600081840152601f19601f820116905080830192505050505050509192919290505050620007f5565b005b620002de60048036036020811015620002c757600080fd5b810190808035906020019092919050505062000b0b565b005b620002ea62000c39565b6040518080602001828103825283818151815260200191508051906020019060200280838360005b838110156200032f57808201518184015260208101905062000312565b505050509050019250505060405180910390f35b6200034d62000d69565b604051808273ffffffffffffffffffffffffffffffffffffffff1673ffffffffffffffffffffffffffffffffffffffff16815260200191505060405180910390f35b60025481565b6002806002811115620003a457fe5b600160149054906101000a900460ff166002811115620003c057fe5b1462000434576040517f08c379a000000000000000000000000000000000000000000000000000000000815260040180806020018281038252601e8152602001807f436f6e7472616374206e6f7420696e207265717569726564207374617465000081525060200191505060405180910390fd5b6000606060008090505b6003805490508110156200051c57600381815481106200045a57fe5b9060005260206000200160009054906101000a900473ffffffffffffffffffffffffffffffffffffffff1673ffffffffffffffffffffffffffffffffffffffff1663173b8edd6040518163ffffffff1660e01b8152600401602060405180830381600087803b158015620004cd57600080fd5b505af1158015620004e2573d6000803e3d6000fd5b505050506040513d6020811015620004f957600080fd5b81019080805190602001909291905050508301925080806001019150506200043e565b5060008090505b600380549050811015620007b25782600382815481106200054057fe5b9060005260206000200160009054906101000a900473ffffffffffffffffffffffffffffffffffffffff1673ffffffffffffffffffffffffffffffffffffffff1663173b8edd6040518163ffffffff1660e01b8152600401602060405180830381600087803b158015620005b357600080fd5b505af1158015620005c8573d6000803e3d6000fd5b505050506040513d6020811015620005df57600080fd5b810190808051906020019092919050505081620005f857fe5b048282815181106200060657fe5b602002602001018181525050600460009054906101000a900473ffffffffffffffffffffffffffffffffffffffff1673ffffffffffffffffffffffffffffffffffffffff16632d1f0e308383815181106200065d57fe5b6020026020010151600384815481106200067357fe5b9060005260206000200160009054906101000a900473ffffffffffffffffffffffffffffffffffffffff1673ffffffffffffffffffffffffffffffffffffffff16638da5cb5b6040518163ffffffff1660e01b815260040160206040518083038186803b158015620006e457600080fd5b505afa158015620006f9573d6000803e3d6000fd5b505050506040513d60208110156200071057600080fd5b81019080805190602001909291905050506040518363ffffffff1660e01b8152600401808381526020018273ffffffffffffffffffffffffffffffffffffffff1673ffffffffffffffffffffffffffffffffffffffff16815260200192505050600060405180830381600087803b1580156200078b57600080fd5b505af1158015620007a0573d6000803e3d6000fd5b50505050808060010191505062000523565b50505050565b60038181548110620007c657fe5b906000526020600020016000915054906101000a900473ffffffffffffffffffffffffffffffffffffffff1681565b600160009054906101000a900473ffffffffffffffffffffffffffffffffffffffff1673ffffffffffffffffffffffffffffffffffffffff163373ffffffffffffffffffffffffffffffffffffffff16146200089d576040517f08c379a0000000000000000000000000000000000000000000000000000000008152600401808060200182810382526024815260200180620019c56024913960400191505060405180910390fd5b6000806002811115620008ac57fe5b600160149054906101000a900460ff166002811115620008c857fe5b146200093c576040517f08c379a000000000000000000000000000000000000000000000000000000000815260040180806020018281038252601e8152602001807f436f6e7472616374206e6f7420696e207265717569726564207374617465000081525060200191505060405180910390fd5b600085858585604051620009509062000d8f565b808573ffffffffffffffffffffffffffffffffffffffff1673ffffffffffffffffffffffffffffffffffffffff1681526020018481526020018060200180602001838103835285818151815260200191508051906020019080838360005b83811015620009cb578082015181840152602081019050620009ae565b50505050905090810190601f168015620009f95780820380516001836020036101000a031916815260200191505b50838103825284818151815260200191508051906020019080838360005b8381101562000a3457808201518184015260208101905062000a17565b50505050905090810190601f16801562000a625780820380516001836020036101000a031916815260200191505b509650505050505050604051809103906000f08015801562000a88573d6000803e3d6000fd5b50905060026000815480929190600101919050555060038190806001815401808255809150509060018203906000526020600020016000909192909190916101000a81548173ffffffffffffffffffffffffffffffffffffffff021916908373ffffffffffffffffffffffffffffffffffffffff16021790555050505050505050565b600160009054906101000a900473ffffffffffffffffffffffffffffffffffffffff1673ffffffffffffffffffffffffffffffffffffffff163373ffffffffffffffffffffffffffffffffffffffff161462000bb3576040517f08c379a0000000000000000000000000000000000000000000000000000000008152600401808060200182810382526024815260200180620019c56024913960400191505060405180910390fd5b600181141562000c3657600054421062000c35576040517f08c379a000000000000000000000000000000000000000000000000000000000815260040180806020018281038252601f8152602001807f6f6e676f696e672070686173652063616e6e6f7420626520737461727465640081525060200191505060405180910390fd5b5b50565b6060600080600281111562000c4a57fe5b600160149054906101000a900460ff16600281111562000c6657fe5b1462000cda576040517f08c379a000000000000000000000000000000000000000000000000000000000815260040180806020018281038252601e8152602001807f436f6e7472616374206e6f7420696e207265717569726564207374617465000081525060200191505060405180910390fd5b600380548060200260200160405190810160405280929190818152602001828054801562000d5e57602002820191906000526020600020905b8160009054906101000a900473ffffffffffffffffffffffffffffffffffffffff1673ffffffffffffffffffffffffffffffffffffffff168152602001906001019080831162000d13575b505050505091505090565b600460009054906101000a900473ffffffffffffffffffffffffffffffffffffffff1681565b610c278062000d9e8339019056fe60806040523480156200001157600080fd5b5060405162000c2738038062000c27833981810160405260808110156200003757600080fd5b810190808051906020019092919080519060200190929190805160405193929190846401000000008211156200006c57600080fd5b838201915060208201858111156200008357600080fd5b8251866001820283011164010000000082111715620000a157600080fd5b8083526020830192505050908051906020019080838360005b83811015620000d7578082015181840152602081019050620000ba565b50505050905090810190601f168015620001055780820380516001836020036101000a031916815260200191505b50604052602001805160405193929190846401000000008211156200012957600080fd5b838201915060208201858111156200014057600080fd5b82518660018202830111640100000000821117156200015e57600080fd5b8083526020830192505050908051906020019080838360005b838110156200019457808201518184015260208101905062000177565b50505050905090810190601f168015620001c25780820380516001836020036101000a031916815260200191505b50604052505050826001819055508160029080519060200190620001e892919062000271565b5080600390805190602001906200020192919062000271565b50836000806101000a81548173ffffffffffffffffffffffffffffffffffffffff021916908373ffffffffffffffffffffffffffffffffffffffff1602179055506000600560006101000a81548160ff021916908360028111156200026257fe5b02179055505050505062000320565b828054600181600116156101000203166002900490600052602060002090601f016020900481019282601f10620002b457805160ff1916838001178555620002e5565b82800160010185558215620002e5579182015b82811115620002e4578251825591602001919060010190620002c7565b5b509050620002f49190620002f8565b5090565b6200031d91905b8082111562000319576000816000905550600101620002ff565b5090565b90565b6108f780620003306000396000f3fe6080604052600436106100705760003560e01c80638da5cb5b1161004e5780638da5cb5b146100d5578063b00741cb1461012c578063d7bb99ba14610167578063e2ae93fb1461017157610070565b8063173b8edd1461007557806363bd1d4a146100a05780636fc44344146100aa575b600080fd5b34801561008157600080fd5b5061008a6101d6565b6040518082815260200191505060405180910390f35b6100a8610299565b005b3480156100b657600080fd5b506100bf61044b565b6040518082815260200191505060405180910390f35b3480156100e157600080fd5b506100ea610451565b604051808273ffffffffffffffffffffffffffffffffffffffff1673ffffffffffffffffffffffffffffffffffffffff16815260200191505060405180910390f35b34801561013857600080fd5b506101656004803603602081101561014f57600080fd5b8101908080359060200190929190505050610476565b005b61016f61059f565b005b34801561017d57600080fd5b506101c06004803603602081101561019457600080fd5b81019080803573ffffffffffffffffffffffffffffffffffffffff1690602001909291905050506107d1565b6040518082815260200191505060405180910390f35b600080600090505b6009805490508110156102865761026a60076000600984815481106101ff57fe5b9060005260206000200160009054906101000a900473ffffffffffffffffffffffffffffffffffffffff1673ffffffffffffffffffffffffffffffffffffffff1673ffffffffffffffffffffffffffffffffffffffff168152602001908152602001600020546107e9565b60086000828254019250508190555080806001019150506101de565b506102946008546002610830565b905090565b6000809054906101000a900473ffffffffffffffffffffffffffffffffffffffff1673ffffffffffffffffffffffffffffffffffffffff163373ffffffffffffffffffffffffffffffffffffffff161461033e576040517f08c379a000000000000000000000000000000000000000000000000000000000815260040180806020018281038252602481526020018061089f6024913960400191505060405180910390fd5b600280600281111561034c57fe5b600560009054906101000a900460ff16600281111561036757fe5b146103da576040517f08c379a000000000000000000000000000000000000000000000000000000000815260040180806020018281038252601e8152602001807f436f6e7472616374206e6f7420696e207265717569726564207374617465000081525060200191505060405180910390fd5b60004790506000809054906101000a900473ffffffffffffffffffffffffffffffffffffffff1673ffffffffffffffffffffffffffffffffffffffff166108fc829081150290604051600060405180830381858888f19350505050158015610446573d6000803e3d6000fd5b505050565b60065481565b6000809054906101000a900473ffffffffffffffffffffffffffffffffffffffff1681565b6000809054906101000a900473ffffffffffffffffffffffffffffffffffffffff1673ffffffffffffffffffffffffffffffffffffffff163373ffffffffffffffffffffffffffffffffffffffff161461051b576040517f08c379a000000000000000000000000000000000000000000000000000000000815260040180806020018281038252602481526020018061089f6024913960400191505060405180910390fd5b600181141561059c57600454421061059b576040517f08c379a000000000000000000000000000000000000000000000000000000000815260040180806020018281038252601f8152602001807f6f6e676f696e672070686173652063616e6e6f7420626520737461727465640081525060200191505060405180910390fd5b5b50565b60018060028111156105ad57fe5b600560009054906101000a900460ff1660028111156105c857fe5b1461063b576040517f08c379a000000000000000000000000000000000000000000000000000000000815260040180806020018281038252601e8152602001807f436f6e7472616374206e6f7420696e207265717569726564207374617465000081525060200191505060405180910390fd5b60003490506000600760003373ffffffffffffffffffffffffffffffffffffffff1673ffffffffffffffffffffffffffffffffffffffff1681526020019081526020016000205414156107375760093390806001815401808255809150509060018203906000526020600020016000909192909190916101000a81548173ffffffffffffffffffffffffffffffffffffffff021916908373ffffffffffffffffffffffffffffffffffffffff1602179055505080600760003373ffffffffffffffffffffffffffffffffffffffff1673ffffffffffffffffffffffffffffffffffffffff168152602001908152602001600020819055506107bd565b80600760003373ffffffffffffffffffffffffffffffffffffffff1673ffffffffffffffffffffffffffffffffffffffff1681526020019081526020016000205401600760003373ffffffffffffffffffffffffffffffffffffffff1673ffffffffffffffffffffffffffffffffffffffff168152602001908152602001600020819055505b806006600082825401925050819055505050565b60076020528060005260406000206000915090505481565b600080600283816107f657fe5b04905060008090505b80821461082657819050600282858161081457fe5b0483018161081e57fe5b0491506107ff565b8192505050919050565b6000808214156108435760019050610898565b60016002838161084f57fe5b06141561086c57826108648460018503610830565b029050610898565b610880836002848161087a57fe5b04610830565b610894846002858161088e57fe5b04610830565b0290505b9291505056fe43616e6e6f7420616c6c6f7720616363657373206f74686572207468616e206f776e6572a265627a7a723158205e1cd83ec4951609dafc4b3127e6909f65a06790baa89bfdfde1d6a2788e6a6a64736f6c6343000510003243616e6e6f7420616c6c6f7720616363657373206f74686572207468616e206f776e6572a265627a7a723158207ea1f38c5f78a6b1667f59d994059a91ff7db8c93364a72df6677422dfd7b10f64736f6c63430005100032608060405234801561001057600080fd5b506040516104a33803806104a38339818101604052602081101561003357600080fd5b810190808051906020019092919050505033600360006101000a81548173ffffffffffffffffffffffffffffffffffffffff021916908373ffffffffffffffffffffffffffffffffffffffff1602179055508042016000819055506000600160006101000a81548160ff021916908360028111156100ad57fe5b0217905550506103e1806100c26000396000f3fe6080604052600436106100345760003560e01c80631c1eb764146100395780632d1f0e3014610043578063b00741cb14610091575b600080fd5b6100416100cc565b005b61008f6004803603604081101561005957600080fd5b8101908080359060200190929190803573ffffffffffffffffffffffffffffffffffffffff169060200190929190505050610169565b005b34801561009d57600080fd5b506100ca600480360360208110156100b457600080fd5b810190808035906020019092919050505061025e565b005b600034905080600460003373ffffffffffffffffffffffffffffffffffffffff1673ffffffffffffffffffffffffffffffffffffffff1681526020019081526020016000205401600460003373ffffffffffffffffffffffffffffffffffffffff1673ffffffffffffffffffffffffffffffffffffffff168152602001908152602001600020819055508060026000828254019250508190555050565b600360009054906101000a900473ffffffffffffffffffffffffffffffffffffffff1673ffffffffffffffffffffffffffffffffffffffff163373ffffffffffffffffffffffffffffffffffffffff161461020f576040517f08c379a00000000000000000000000000000000000000000000000000000000081526004018080602001828103825260248152602001806103896024913960400191505060405180910390fd5b8073ffffffffffffffffffffffffffffffffffffffff166108fc60025484029081150290604051600060405180830381858888f19350505050158015610259573d6000803e3d6000fd5b505050565b600360009054906101000a900473ffffffffffffffffffffffffffffffffffffffff1673ffffffffffffffffffffffffffffffffffffffff163373ffffffffffffffffffffffffffffffffffffffff1614610304576040517f08c379a00000000000000000000000000000000000000000000000000000000081526004018080602001828103825260248152602001806103896024913960400191505060405180910390fd5b6001811415610385576000544210610384576040517f08c379a000000000000000000000000000000000000000000000000000000000815260040180806020018281038252601f8152602001807f6f6e676f696e672070686173652063616e6e6f7420626520737461727465640081525060200191505060405180910390fd5b5b5056fe43616e6e6f7420616c6c6f7720616363657373206f74686572207468616e206f776e6572a265627a7a72315820f6f8cc02701cd49d4e016b5e0835de0ee1356be0ad9b88aecf49b60b7b64078a64736f6c63430005100032",
  "source": "// SPDX-License-Identifier: GPL-3.0\n\npragma solidity >=0.4.22 <0.9.0;\n\nimport \"./Project.sol\";\nimport \"./Pool.sol\";\n\ncontract QFunding{\n   \n    enum State {initialized, ongoing, completed}\n    \n   \n    uint256 raiseTill;\n    address owner;\n    State currentState;\n    uint256 public projectcount;\n    //uint256 public currentBal;\n    Project [] public projectsListed;\n    Pool public sponsorPool;\n    \n    //modifier to allow access only to the owner.\n    modifier isOwner() {\n        require(msg.sender == owner, \"Cannot allow access other than owner\");\n        _;\n    }\n    \n    //modifier to allow the function to proceed only if contract is in intended state.\n    modifier isState(State reqState) {\n        require(currentState == reqState, \"Contract not in required state\");\n        _;\n    }\n   \n   //initializes the owner of the contract and the sponsor pool contract and currentState of the\n   //contract to initialized.\n   constructor (uint256 duration) public {\n       owner = msg.sender;\n       raiseTill=block.timestamp+duration;\n       sponsorPool = new Pool(duration);\n       currentState = State.initialized;\n   }\n   \n   \n   //function to change the currentState variable of the contract based on comparing block timestamp \n   //to constant raiseBy and startRaisingFrom to meet isState modifier requirements. Currently only\n   //the owner can change the phase but chainlink keeper can be implemented later to automate the \n   //change state process.\n   function changeState(uint state) public isOwner {\n        if(state == 1){\n            require(block.timestamp < raiseTill, \"ongoing phase cannot be started\");\n        }\n    }\n   \n   //here the project implementation is such that projects participating in the funding is controlled\n   //by the Funding organizers. If we have to implement it such that anyone can create a project and\n   //participate in the funding remove isOwner modifier, remove the address projectOwner variable then\n   //instead pass msg.sender to the Project contract instance.\n   function createProject(address payable projectOwner, uint projectID, string memory imag, string memory des) public isOwner isState(State.initialized) {\n       Project newProject = new Project(projectOwner, projectID, imag, des);\n       projectcount++;\n       projectsListed.push(newProject);\n   }\n   \n   function listprojects() public isState(State.initialized) returns (Project[] memory)\n   {\n       \n       return projectsListed;\n   }\n   \n   //this function recieves the square of sum of sqrt of contributions recieved by individual projects \n   //and sums it by iterating over the projectsListed array. It iterates the projectsListed array once \n   //again, calculates the match ratio and calls the payout function in pool contract with the required \n   //arguments. Since this computation requires very much gas this can be computed off chain using\n   //chainlink external adapters which can be later implemented.\n   function calandPayoutMatch() public isState(State.completed){\n       uint sumSquaredSqrtFundsSum;\n       uint[] memory matchRatio;\n       \n       for(uint i = 0; i < projectsListed.length; i++){\n           //sumSquaredSqrtFundsSum.add(projectsListed[i].getSquaredSqrtFundsSum());\n           sumSquaredSqrtFundsSum += projectsListed[i].getSquaredSqrtFundsSum();\n       }\n       \n       for(uint i = 0; i < projectsListed.length; i++){\n           // redundant variable array matchRatio\n           matchRatio[i] = projectsListed[i].getSquaredSqrtFundsSum()/sumSquaredSqrtFundsSum;\n           sponsorPool.payoutPoolMatch(matchRatio[i], projectsListed[i].owner());\n       }\n       \n   }\n}\n",
  "sourcePath": "/mnt/c/Users/pk/Downloads/Quadratic-Funding-develop-client-side/contracts/QFunding.sol",
  "compiler": {
    "name": "solc",
    "version": "0.5.16+commit.9c3226ce.Emscripten.clang"
  },
  "schemaVersion": "3.4.3",
  "updatedAt": "2021-11-21T06:49:56.713Z",
  "devdoc": {
    "methods": {}
  },
  "userdoc": {
    "methods": {}
  }
}