{
  "_format": "hh-sol-artifact-1",
  "contractName": "Pool",
  "sourceName": "contracts/Pool.sol",
  "abi": [
    {
      "inputs": [
        {
          "internalType": "uint256",
          "name": "idnumber",
          "type": "uint256"
        },
        {
          "internalType": "string",
          "name": "nam",
          "type": "string"
        },
        {
          "internalType": "address",
          "name": "creator",
          "type": "address"
        }
      ],
      "stateMutability": "nonpayable",
      "type": "constructor"
    },
    {
      "anonymous": false,
      "inputs": [
        {
          "indexed": false,
          "internalType": "address",
          "name": "creator",
          "type": "address"
        },
        {
          "indexed": false,
          "internalType": "string",
          "name": "name",
          "type": "string"
        }
      ],
      "name": "Create",
      "type": "event"
    },
    {
      "anonymous": false,
      "inputs": [
        {
          "indexed": true,
          "internalType": "address",
          "name": "previousOwner",
          "type": "address"
        },
        {
          "indexed": true,
          "internalType": "address",
          "name": "newOwner",
          "type": "address"
        }
      ],
      "name": "OwnershipTransferred",
      "type": "event"
    },
    {
      "inputs": [],
      "name": "calandPayoutMatch",
      "outputs": [],
      "stateMutability": "payable",
      "type": "function"
    },
    {
      "inputs": [
        {
          "internalType": "string",
          "name": "name",
          "type": "string"
        },
        {
          "internalType": "string",
          "name": "imag",
          "type": "string"
        },
        {
          "internalType": "string",
          "name": "des",
          "type": "string"
        }
      ],
      "name": "createProject",
      "outputs": [
        {
          "internalType": "contract Project",
          "name": "",
          "type": "address"
        }
      ],
      "stateMutability": "nonpayable",
      "type": "function"
    },
    {
      "inputs": [],
      "name": "currentStatus",
      "outputs": [
        {
          "internalType": "enum Pool.status",
          "name": "",
          "type": "uint8"
        }
      ],
      "stateMutability": "view",
      "type": "function"
    },
    {
      "inputs": [],
      "name": "getContractBalance",
      "outputs": [
        {
          "internalType": "uint256",
          "name": "",
          "type": "uint256"
        }
      ],
      "stateMutability": "view",
      "type": "function"
    },
    {
      "inputs": [],
      "name": "id",
      "outputs": [
        {
          "internalType": "uint256",
          "name": "",
          "type": "uint256"
        }
      ],
      "stateMutability": "view",
      "type": "function"
    },
    {
      "inputs": [],
      "name": "listprojects",
      "outputs": [
        {
          "internalType": "contract Project[]",
          "name": "",
          "type": "address[]"
        }
      ],
      "stateMutability": "view",
      "type": "function"
    },
    {
      "inputs": [],
      "name": "name",
      "outputs": [
        {
          "internalType": "string",
          "name": "",
          "type": "string"
        }
      ],
      "stateMutability": "view",
      "type": "function"
    },
    {
      "inputs": [],
      "name": "owner",
      "outputs": [
        {
          "internalType": "address",
          "name": "",
          "type": "address"
        }
      ],
      "stateMutability": "view",
      "type": "function"
    },
    {
      "inputs": [],
      "name": "poolValue",
      "outputs": [
        {
          "internalType": "uint256",
          "name": "",
          "type": "uint256"
        }
      ],
      "stateMutability": "view",
      "type": "function"
    },
    {
      "inputs": [],
      "name": "poolowner",
      "outputs": [
        {
          "internalType": "address",
          "name": "",
          "type": "address"
        }
      ],
      "stateMutability": "view",
      "type": "function"
    },
    {
      "inputs": [],
      "name": "projectcount",
      "outputs": [
        {
          "internalType": "uint256",
          "name": "",
          "type": "uint256"
        }
      ],
      "stateMutability": "view",
      "type": "function"
    },
    {
      "inputs": [
        {
          "internalType": "uint256",
          "name": "",
          "type": "uint256"
        }
      ],
      "name": "projectsListed",
      "outputs": [
        {
          "internalType": "contract Project",
          "name": "",
          "type": "address"
        }
      ],
      "stateMutability": "view",
      "type": "function"
    },
    {
      "inputs": [],
      "name": "recieveToPool",
      "outputs": [],
      "stateMutability": "payable",
      "type": "function"
    },
    {
      "inputs": [],
      "name": "renounceOwnership",
      "outputs": [],
      "stateMutability": "nonpayable",
      "type": "function"
    },
    {
      "inputs": [
        {
          "internalType": "address",
          "name": "newOwner",
          "type": "address"
        }
      ],
      "name": "transferOwnership",
      "outputs": [],
      "stateMutability": "nonpayable",
      "type": "function"
    }
  ],
  "bytecode": "0x60806040526007805460ff191690553480156200001b57600080fd5b5060405162001f9038038062001f908339810160408190526200003e916200019b565b620000493362000088565b600580546001600160a01b0319166001600160a01b038316179055600183905581516200007e906006906020850190620000d8565b50505050620002e4565b600080546001600160a01b038381166001600160a01b0319831681178455604051919092169283917f8be0079c531659141344cd1fd0a4f28419497f9722a3daafe3b4186f6b6457e09190a35050565b828054620000e69062000291565b90600052602060002090601f0160209004810192826200010a576000855562000155565b82601f106200012557805160ff191683800117855562000155565b8280016001018555821562000155579182015b828111156200015557825182559160200191906001019062000138565b506200016392915062000167565b5090565b5b8082111562000163576000815560010162000168565b80516001600160a01b03811681146200019657600080fd5b919050565b600080600060608486031215620001b0578283fd5b8351602080860151919450906001600160401b0380821115620001d1578485fd5b818701915087601f830112620001e5578485fd5b815181811115620001fa57620001fa620002ce565b604051601f8201601f19908116603f01168101908382118183101715620002255762000225620002ce565b816040528281528a868487010111156200023d578788fd5b8793505b8284101562000260578484018601518185018701529285019262000241565b828411156200027157878684830101525b80975050505050505062000288604085016200017e565b90509250925092565b600181811c90821680620002a657607f821691505b60208210811415620002c857634e487b7160e01b600052602260045260246000fd5b50919050565b634e487b7160e01b600052604160045260246000fd5b611c9c80620002f46000396000f3fe608060405260043610620000fb5760003560e01c80638da5cb5b1162000095578063cf6b75ea1162000060578063cf6b75ea146200024f578063cf7be6ec1462000271578063ef8a92351462000296578063f2fde38b14620002c157600080fd5b80638da5cb5b14620001d8578063af640d0f14620001f8578063b86150711462000210578063c48d1193146200022857600080fd5b80631c1eb76411620000d65780631c1eb764146200016357806337fe12a5146200016d5780636f9fb98a14620001ab578063715018a614620001c057600080fd5b806306fdde031462000100578063104e22c614620001305780631a3b32dc1462000157575b600080fd5b3480156200010d57600080fd5b5062000118620002e6565b60405162000127919062000f19565b60405180910390f35b3480156200013d57600080fd5b506200014860025481565b60405190815260200162000127565b620001616200037c565b005b6200016162000938565b3480156200017a57600080fd5b50620001926200018c36600462000d98565b62000983565b6040516001600160a01b03909116815260200162000127565b348015620001b857600080fd5b504762000148565b348015620001cd57600080fd5b5062000161620009ae565b348015620001e557600080fd5b506000546001600160a01b031662000192565b3480156200020557600080fd5b506200014860015481565b3480156200021d57600080fd5b506200014860045481565b3480156200023557600080fd5b5062000240620009e9565b60405162000127919062000ea1565b3480156200025c57600080fd5b5060055462000192906001600160a01b031681565b3480156200027e57600080fd5b50620001926200029036600462000d0a565b62000a4d565b348015620002a357600080fd5b50600754620002b29060ff1681565b60405162000127919062000ef0565b348015620002ce57600080fd5b5062000161620002e036600462000cc5565b62000b36565b60068054620002f59062000fc1565b80601f0160208091040260200160405190810160405280929190818152602001828054620003239062000fc1565b8015620003745780601f10620003485761010080835404028352916020019162000374565b820191906000526020600020905b8154815290600101906020018083116200035657829003601f168201915b505050505081565b6000546001600160a01b03163314620003b25760405162461bcd60e51b8152600401620003a99062000f2e565b60405180910390fd5b47600455600080805b600254811015620005435760038181548110620003e857634e487b7160e01b600052603260045260246000fd5b6000918252602091829020015460408051631b7dd93f60e11b815290516001600160a01b03909216926336fbb27e92600480840193829003018186803b1580156200043257600080fd5b505afa15801562000447573d6000803e3d6000fd5b505050506040513d601f19601f820116820180604052508101906200046d919062000db1565b600382815481106200048f57634e487b7160e01b600052603260045260246000fd5b6000918252602091829020015460408051631b7dd93f60e11b815290516001600160a01b03909216926336fbb27e92600480840193829003018186803b158015620004d957600080fd5b505afa158015620004ee573d6000803e3d6000fd5b505050506040513d601f19601f8201168201806040525081019062000514919062000db1565b62000520919062000f9f565b6200052c908462000f63565b9250806200053a8162000ffe565b915050620003bb565b5060008211620005965760405162461bcd60e51b815260206004820152601960248201527f4e6f20636f6e747269627574696f6e73207265636f72646564000000000000006044820152606401620003a9565b60005b600254811015620009265760038181548110620005c657634e487b7160e01b600052603260045260246000fd5b6000918252602091829020015460408051631b7dd93f60e11b815290516001600160a01b03909216926336fbb27e92600480840193829003018186803b1580156200061057600080fd5b505afa15801562000625573d6000803e3d6000fd5b505050506040513d601f19601f820116820180604052508101906200064b919062000db1565b600382815481106200066d57634e487b7160e01b600052603260045260246000fd5b6000918252602091829020015460408051631b7dd93f60e11b815290516001600160a01b03909216926336fbb27e92600480840193829003018186803b158015620006b757600080fd5b505afa158015620006cc573d6000803e3d6000fd5b505050506040513d601f19601f82011682018060405250810190620006f2919062000db1565b620006fe919062000f9f565b915047836004548462000712919062000f9f565b6200071e919062000f7e565b116200082457600381815481106200074657634e487b7160e01b600052603260045260246000fd5b6000918252602091829020015460408051632911d73960e21b815290516001600160a01b039092169263a4475ce492600480840193829003018186803b1580156200079057600080fd5b505afa158015620007a5573d6000803e3d6000fd5b505050506040513d601f19601f82011682018060405250810190620007cb919062000ceb565b6001600160a01b03166108fc8460045485620007e8919062000f9f565b620007f4919062000f7e565b6040518115909202916000818181858888f193505050501580156200081d573d6000803e3d6000fd5b5062000911565b47156200090b57600381815481106200084d57634e487b7160e01b600052603260045260246000fd5b6000918252602091829020015460408051632911d73960e21b815290516001600160a01b039092169263a4475ce492600480840193829003018186803b1580156200089757600080fd5b505afa158015620008ac573d6000803e3d6000fd5b505050506040513d601f19601f82011682018060405250810190620008d2919062000ceb565b6001600160a01b03166108fc479081150290604051600060405180830381858888f193505050501580156200081d573d6000803e3d6000fd5b62000926565b806200091d8162000ffe565b91505062000599565b50506007805460ff1916600117905550565b336000908152600860205260409020546200095590349062000f63565b33600090815260086020526040812091909155600480543492906200097c90849062000f63565b9091555050565b600381815481106200099457600080fd5b6000918252602090912001546001600160a01b0316905081565b6000546001600160a01b03163314620009db5760405162461bcd60e51b8152600401620003a99062000f2e565b620009e7600062000bd8565b565b6060600380548060200260200160405190810160405280929190818152602001828054801562000a4357602002820191906000526020600020905b81546001600160a01b0316815260019091019060200180831162000a24575b5050505050905090565b6000803385858560405162000a629062000c28565b62000a71949392919062000e18565b604051809103906000f08015801562000a8e573d6000803e3d6000fd5b5060028054919250600062000aa38362000ffe565b91905055507f8a75407835e6c523aab71fd01762bc15e009f6b559ad388e51908800aee1d43b338660405162000adb92919062000e73565b60405180910390a1600380546001810182556000919091527fc2575a0e9e593c00f959f8c92f12db2869c3395a3b0502d05e2516446f71f85b0180546001600160a01b0319166001600160a01b038316179055949350505050565b6000546001600160a01b0316331462000b635760405162461bcd60e51b8152600401620003a99062000f2e565b6001600160a01b03811662000bca5760405162461bcd60e51b815260206004820152602660248201527f4f776e61626c653a206e6577206f776e657220697320746865207a65726f206160448201526564647265737360d01b6064820152608401620003a9565b62000bd58162000bd8565b50565b600080546001600160a01b038381166001600160a01b0319831681178455604051919092169283917f8be0079c531659141344cd1fd0a4f28419497f9722a3daafe3b4186f6b6457e09190a35050565b610c08806200105f83390190565b600082601f83011262000c47578081fd5b813567ffffffffffffffff8082111562000c655762000c6562001032565b604051601f8301601f19908116603f0116810190828211818310171562000c905762000c9062001032565b8160405283815286602085880101111562000ca9578485fd5b8360208701602083013792830160200193909352509392505050565b60006020828403121562000cd7578081fd5b813562000ce48162001048565b9392505050565b60006020828403121562000cfd578081fd5b815162000ce48162001048565b60008060006060848603121562000d1f578182fd5b833567ffffffffffffffff8082111562000d37578384fd5b62000d458783880162000c36565b9450602086013591508082111562000d5b578384fd5b62000d698783880162000c36565b9350604086013591508082111562000d7f578283fd5b5062000d8e8682870162000c36565b9150509250925092565b60006020828403121562000daa578081fd5b5035919050565b60006020828403121562000dc3578081fd5b5051919050565b60008151808452815b8181101562000df15760208185018101518683018201520162000dd3565b8181111562000e035782602083870101525b50601f01601f19169290920160200192915050565b6001600160a01b038516815260806020820181905260009062000e3e9083018662000dca565b828103604084015262000e52818662000dca565b9050828103606084015262000e68818562000dca565b979650505050505050565b6001600160a01b038316815260406020820181905260009062000e999083018462000dca565b949350505050565b6020808252825182820181905260009190848201906040850190845b8181101562000ee45783516001600160a01b03168352928401929184019160010162000ebd565b50909695505050505050565b602081016002831062000f1357634e487b7160e01b600052602160045260246000fd5b91905290565b60208152600062000ce4602083018462000dca565b6020808252818101527f4f776e61626c653a2063616c6c6572206973206e6f7420746865206f776e6572604082015260600190565b6000821982111562000f795762000f796200101c565b500190565b60008262000f9a57634e487b7160e01b81526012600452602481fd5b500490565b600081600019048311821515161562000fbc5762000fbc6200101c565b500290565b600181811c9082168062000fd657607f821691505b6020821081141562000ff857634e487b7160e01b600052602260045260246000fd5b50919050565b60006000198214156200101557620010156200101c565b5060010190565b634e487b7160e01b600052601160045260246000fd5b634e487b7160e01b600052604160045260246000fd5b6001600160a01b038116811462000bd557600080fdfe60806040523480156200001157600080fd5b5060405162000c0838038062000c0883398101604081905262000034916200024f565b6200003f33620000a6565b815162000054906003906020850190620000f6565b5080516200006a906004906020840190620000f6565b50600180546001600160a01b0319166001600160a01b03861617905582516200009b906002906020860190620000f6565b50505050506200034f565b600080546001600160a01b038381166001600160a01b0319831681178455604051919092169283917f8be0079c531659141344cd1fd0a4f28419497f9722a3daafe3b4186f6b6457e09190a35050565b8280546200010490620002fc565b90600052602060002090601f01602090048101928262000128576000855562000173565b82601f106200014357805160ff191683800117855562000173565b8280016001018555821562000173579182015b828111156200017357825182559160200191906001019062000156565b506200018192915062000185565b5090565b5b8082111562000181576000815560010162000186565b600082601f830112620001ad578081fd5b81516001600160401b0380821115620001ca57620001ca62000339565b604051601f8301601f19908116603f01168101908282118183101715620001f557620001f562000339565b8160405283815260209250868385880101111562000211578485fd5b8491505b8382101562000234578582018301518183018401529082019062000215565b838211156200024557848385830101525b9695505050505050565b6000806000806080858703121562000265578384fd5b84516001600160a01b03811681146200027c578485fd5b60208601519094506001600160401b038082111562000299578485fd5b620002a7888389016200019c565b94506040870151915080821115620002bd578384fd5b620002cb888389016200019c565b93506060870151915080821115620002e1578283fd5b50620002f0878288016200019c565b91505092959194509250565b600181811c908216806200031157607f821691505b602082108114156200033357634e487b7160e01b600052602260045260246000fd5b50919050565b634e487b7160e01b600052604160045260246000fd5b6108a9806200035f6000396000f3fe6080604052600436106100dd5760003560e01c80638da5cb5b1161007f578063d7bb99ba11610059578063d7bb99ba146101f5578063e2ae93fb146101fd578063f2fde38b1461022a578063f3ccaac01461024a57600080fd5b80638da5cb5b146101905780639a274fff146101c2578063a4475ce4146101d557600080fd5b806363bd1d4a116100bb57806363bd1d4a146101465780636fc4434414610150578063715018a6146101665780637284e4161461017b57600080fd5b806306fdde03146100e2578063173b8edd1461010d57806336fbb27e14610130575b600080fd5b3480156100ee57600080fd5b506100f761025f565b6040516101049190610711565b60405180910390f35b34801561011957600080fd5b506101226102ed565b604051908152602001610104565b34801561013c57600080fd5b5061012260085481565b61014e610389565b005b34801561015c57600080fd5b5061012260055481565b34801561017257600080fd5b5061014e6103fa565b34801561018757600080fd5b506100f7610430565b34801561019c57600080fd5b506000546001600160a01b03165b6040516001600160a01b039091168152602001610104565b3480156101ce57600080fd5b5047610122565b3480156101e157600080fd5b506001546101aa906001600160a01b031681565b61014e61043d565b34801561020957600080fd5b506101226102183660046106e3565b60066020526000908152604090205481565b34801561023657600080fd5b5061014e6102453660046106e3565b61055e565b34801561025657600080fd5b506100f76105f9565b6002805461026c90610807565b80601f016020809104026020016040519081016040528092919081815260200182805461029890610807565b80156102e55780601f106102ba576101008083540402835291602001916102e5565b820191906000526020600020905b8154815290600101906020018083116102c857829003601f168201915b505050505081565b6000805b6009548110156103765761034d600660006009848154811061032357634e487b7160e01b600052603260045260246000fd5b60009182526020808320909101546001600160a01b03168352820192909252604001902054610606565b6007600082825461035e9190610799565b9091555081905061036e81610842565b9150506102f1565b5060075461038490806107d1565b905090565b6000546001600160a01b031633146103bc5760405162461bcd60e51b81526004016103b390610764565b60405180910390fd5b60015460405147916001600160a01b03169082156108fc029083906000818181858888f193505050501580156103f6573d6000803e3d6000fd5b5050565b6000546001600160a01b031633146104245760405162461bcd60e51b81526004016103b390610764565b61042e6000610693565b565b6004805461026c90610807565b3360009081526006602052604090205434906104c95760098054600181019091557f6e1540171b6c0c960b71a7020d9f60077f6af931a8bbf590da0223dacf75c7af0180546001600160a01b0319163390811790915560009081526006602052604090208190556104ad81610606565b600860008282546104be9190610799565b909155506105449050565b336000908152600660205260409020546104e4908290610799565b33600090815260066020526040902081905561050a906105059083906107f0565b610606565b3360009081526006602052604090205461052390610606565b61052d91906107f0565b6008600082825461053e9190610799565b90915550505b80600560008282546105569190610799565b909155505050565b6000546001600160a01b031633146105885760405162461bcd60e51b81526004016103b390610764565b6001600160a01b0381166105ed5760405162461bcd60e51b815260206004820152602660248201527f4f776e61626c653a206e6577206f776e657220697320746865207a65726f206160448201526564647265737360d01b60648201526084016103b3565b6105f681610693565b50565b6003805461026c90610807565b600080821161064a5760405162461bcd60e51b815260206004820152601060248201526f24b6b0b3b4b730b93c90373ab6b132b960811b60448201526064016103b3565b60006106576002846107b1565b905060005b80821461068c575080600261067182866107b1565b61067b9084610799565b61068591906107b1565b915061065c565b5092915050565b600080546001600160a01b038381166001600160a01b0319831681178455604051919092169283917f8be0079c531659141344cd1fd0a4f28419497f9722a3daafe3b4186f6b6457e09190a35050565b6000602082840312156106f4578081fd5b81356001600160a01b038116811461070a578182fd5b9392505050565b6000602080835283518082850152825b8181101561073d57858101830151858201604001528201610721565b8181111561074e5783604083870101525b50601f01601f1916929092016040019392505050565b6020808252818101527f4f776e61626c653a2063616c6c6572206973206e6f7420746865206f776e6572604082015260600190565b600082198211156107ac576107ac61085d565b500190565b6000826107cc57634e487b7160e01b81526012600452602481fd5b500490565b60008160001904831182151516156107eb576107eb61085d565b500290565b6000828210156108025761080261085d565b500390565b600181811c9082168061081b57607f821691505b6020821081141561083c57634e487b7160e01b600052602260045260246000fd5b50919050565b60006000198214156108565761085661085d565b5060010190565b634e487b7160e01b600052601160045260246000fdfea26469706673582212205332e94a2fdcf5526c43052c4353ba88ab4d4abb904a47e532f60995a40491ab64736f6c63430008040033a2646970667358221220999f2e58616ae9993c8c925fb7ada6831edd6335500262aff9ee962f3b74249d64736f6c63430008040033",
  "linkReferences": {},
  "deployedLinkReferences": {}
}