{
  "_format": "hh-sol-artifact-1",
  "contractName": "Pool",
  "sourceName": "contracts/Pool.sol",
  "abi": [
    {
      "inputs": [
        {
          "internalType": "uint256",
          "name": "idnumber",
          "type": "uint256"
        },
        {
          "internalType": "string",
          "name": "nam",
          "type": "string"
        },
        {
          "internalType": "address",
          "name": "creator",
          "type": "address"
        }
      ],
      "stateMutability": "nonpayable",
      "type": "constructor"
    },
    {
      "anonymous": false,
      "inputs": [
        {
          "indexed": false,
          "internalType": "address",
          "name": "creator",
          "type": "address"
        },
        {
          "indexed": false,
          "internalType": "string",
          "name": "name",
          "type": "string"
        }
      ],
      "name": "Create",
      "type": "event"
    },
    {
      "anonymous": false,
      "inputs": [
        {
          "indexed": true,
          "internalType": "address",
          "name": "previousOwner",
          "type": "address"
        },
        {
          "indexed": true,
          "internalType": "address",
          "name": "newOwner",
          "type": "address"
        }
      ],
      "name": "OwnershipTransferred",
      "type": "event"
    },
    {
      "inputs": [],
      "name": "calandPayoutMatch",
      "outputs": [],
      "stateMutability": "payable",
      "type": "function"
    },
    {
      "inputs": [
        {
          "internalType": "string",
          "name": "name",
          "type": "string"
        },
        {
          "internalType": "string",
          "name": "imag",
          "type": "string"
        },
        {
          "internalType": "string",
          "name": "des",
          "type": "string"
        }
      ],
      "name": "createProject",
      "outputs": [
        {
          "internalType": "contract Project",
          "name": "",
          "type": "address"
        }
      ],
      "stateMutability": "nonpayable",
      "type": "function"
    },
    {
      "inputs": [],
      "name": "getContractBalance",
      "outputs": [
        {
          "internalType": "uint256",
          "name": "",
          "type": "uint256"
        }
      ],
      "stateMutability": "view",
      "type": "function"
    },
    {
      "inputs": [],
      "name": "id",
      "outputs": [
        {
          "internalType": "uint256",
          "name": "",
          "type": "uint256"
        }
      ],
      "stateMutability": "view",
      "type": "function"
    },
    {
      "inputs": [],
      "name": "listprojects",
      "outputs": [
        {
          "internalType": "contract Project[]",
          "name": "",
          "type": "address[]"
        }
      ],
      "stateMutability": "view",
      "type": "function"
    },
    {
      "inputs": [],
      "name": "name",
      "outputs": [
        {
          "internalType": "string",
          "name": "",
          "type": "string"
        }
      ],
      "stateMutability": "view",
      "type": "function"
    },
    {
      "inputs": [],
      "name": "owner",
      "outputs": [
        {
          "internalType": "address",
          "name": "",
          "type": "address"
        }
      ],
      "stateMutability": "view",
      "type": "function"
    },
    {
      "inputs": [],
      "name": "poolValue",
      "outputs": [
        {
          "internalType": "uint256",
          "name": "",
          "type": "uint256"
        }
      ],
      "stateMutability": "view",
      "type": "function"
    },
    {
      "inputs": [],
      "name": "poolowner",
      "outputs": [
        {
          "internalType": "address",
          "name": "",
          "type": "address"
        }
      ],
      "stateMutability": "view",
      "type": "function"
    },
    {
      "inputs": [],
      "name": "projectcount",
      "outputs": [
        {
          "internalType": "uint256",
          "name": "",
          "type": "uint256"
        }
      ],
      "stateMutability": "view",
      "type": "function"
    },
    {
      "inputs": [
        {
          "internalType": "uint256",
          "name": "",
          "type": "uint256"
        }
      ],
      "name": "projectsListed",
      "outputs": [
        {
          "internalType": "contract Project",
          "name": "",
          "type": "address"
        }
      ],
      "stateMutability": "view",
      "type": "function"
    },
    {
      "inputs": [],
      "name": "recieveToPool",
      "outputs": [],
      "stateMutability": "payable",
      "type": "function"
    },
    {
      "inputs": [],
      "name": "renounceOwnership",
      "outputs": [],
      "stateMutability": "nonpayable",
      "type": "function"
    },
    {
      "inputs": [
        {
          "internalType": "address",
          "name": "newOwner",
          "type": "address"
        }
      ],
      "name": "transferOwnership",
      "outputs": [],
      "stateMutability": "nonpayable",
      "type": "function"
    }
  ],
  "bytecode": "0x60806040523480156200001157600080fd5b5060405162001f0e38038062001f0e833981016040819052620000349162000191565b6200003f336200007e565b600580546001600160a01b0319166001600160a01b0383161790556001839055815162000074906006906020850190620000ce565b50505050620002da565b600080546001600160a01b038381166001600160a01b0319831681178455604051919092169283917f8be0079c531659141344cd1fd0a4f28419497f9722a3daafe3b4186f6b6457e09190a35050565b828054620000dc9062000287565b90600052602060002090601f0160209004810192826200010057600085556200014b565b82601f106200011b57805160ff19168380011785556200014b565b828001600101855582156200014b579182015b828111156200014b5782518255916020019190600101906200012e565b50620001599291506200015d565b5090565b5b808211156200015957600081556001016200015e565b80516001600160a01b03811681146200018c57600080fd5b919050565b600080600060608486031215620001a6578283fd5b8351602080860151919450906001600160401b0380821115620001c7578485fd5b818701915087601f830112620001db578485fd5b815181811115620001f057620001f0620002c4565b604051601f8201601f19908116603f011681019083821181831017156200021b576200021b620002c4565b816040528281528a8684870101111562000233578788fd5b8793505b8284101562000256578484018601518185018701529285019262000237565b828411156200026757878684830101525b8097505050505050506200027e6040850162000174565b90509250925092565b600181811c908216806200029c57607f821691505b60208210811415620002be57634e487b7160e01b600052602260045260246000fd5b50919050565b634e487b7160e01b600052604160045260246000fd5b611c2480620002ea6000396000f3fe608060405260043610620000ef5760003560e01c80638da5cb5b1162000089578063c48d11931162000060578063c48d1193146200021c578063cf6b75ea1462000243578063cf7be6ec1462000265578063f2fde38b146200028a57600080fd5b80638da5cb5b14620001cc578063af640d0f14620001ec578063b8615071146200020457600080fd5b80631c1eb76411620000ca5780631c1eb764146200015757806337fe12a514620001615780636f9fb98a146200019f578063715018a614620001b457600080fd5b806306fdde0314620000f4578063104e22c614620001245780631a3b32dc146200014b575b600080fd5b3480156200010157600080fd5b506200010c620002af565b6040516200011b919062000ea1565b60405180910390f35b3480156200013157600080fd5b506200013c60025481565b6040519081526020016200011b565b6200015562000345565b005b62000155620008e9565b3480156200016e57600080fd5b50620001866200018036600462000d49565b62000934565b6040516001600160a01b0390911681526020016200011b565b348015620001ac57600080fd5b50476200013c565b348015620001c157600080fd5b50620001556200095f565b348015620001d957600080fd5b506000546001600160a01b031662000186565b348015620001f957600080fd5b506200013c60015481565b3480156200021157600080fd5b506200013c60045481565b3480156200022957600080fd5b50620002346200099a565b6040516200011b919062000e52565b3480156200025057600080fd5b5060055462000186906001600160a01b031681565b3480156200027257600080fd5b50620001866200028436600462000cbb565b620009fe565b3480156200029757600080fd5b5062000155620002a936600462000c76565b62000ae7565b60068054620002be9062000f49565b80601f0160208091040260200160405190810160405280929190818152602001828054620002ec9062000f49565b80156200033d5780601f1062000311576101008083540402835291602001916200033d565b820191906000526020600020905b8154815290600101906020018083116200031f57829003601f168201915b505050505081565b6000546001600160a01b031633146200037b5760405162461bcd60e51b8152600401620003729062000eb6565b60405180910390fd5b47600455600080805b6002548110156200050c5760038181548110620003b157634e487b7160e01b600052603260045260246000fd5b6000918252602091829020015460408051631b7dd93f60e11b815290516001600160a01b03909216926336fbb27e92600480840193829003018186803b158015620003fb57600080fd5b505afa15801562000410573d6000803e3d6000fd5b505050506040513d601f19601f8201168201806040525081019062000436919062000d62565b600382815481106200045857634e487b7160e01b600052603260045260246000fd5b6000918252602091829020015460408051631b7dd93f60e11b815290516001600160a01b03909216926336fbb27e92600480840193829003018186803b158015620004a257600080fd5b505afa158015620004b7573d6000803e3d6000fd5b505050506040513d601f19601f82011682018060405250810190620004dd919062000d62565b620004e9919062000f27565b620004f5908462000eeb565b925080620005038162000f86565b91505062000384565b50600082116200055f5760405162461bcd60e51b815260206004820152601960248201527f4e6f20636f6e747269627574696f6e73207265636f7264656400000000000000604482015260640162000372565b60005b600254811015620008e457600381815481106200058f57634e487b7160e01b600052603260045260246000fd5b6000918252602091829020015460408051631b7dd93f60e11b815290516001600160a01b03909216926336fbb27e92600480840193829003018186803b158015620005d957600080fd5b505afa158015620005ee573d6000803e3d6000fd5b505050506040513d601f19601f8201168201806040525081019062000614919062000d62565b600382815481106200063657634e487b7160e01b600052603260045260246000fd5b6000918252602091829020015460408051631b7dd93f60e11b815290516001600160a01b03909216926336fbb27e92600480840193829003018186803b1580156200068057600080fd5b505afa15801562000695573d6000803e3d6000fd5b505050506040513d601f19601f82011682018060405250810190620006bb919062000d62565b620006c7919062000f27565b9150478360045484620006db919062000f27565b620006e7919062000f06565b11620007ed57600381815481106200070f57634e487b7160e01b600052603260045260246000fd5b6000918252602091829020015460408051632911d73960e21b815290516001600160a01b039092169263a4475ce492600480840193829003018186803b1580156200075957600080fd5b505afa1580156200076e573d6000803e3d6000fd5b505050506040513d601f19601f8201168201806040525081019062000794919062000c9c565b6001600160a01b03166108fc8460045485620007b1919062000f27565b620007bd919062000f06565b6040518115909202916000818181858888f19350505050158015620007e6573d6000803e3d6000fd5b50620008cf565b600381815481106200080f57634e487b7160e01b600052603260045260246000fd5b6000918252602091829020015460408051632911d73960e21b815290516001600160a01b039092169263a4475ce492600480840193829003018186803b1580156200085957600080fd5b505afa1580156200086e573d6000803e3d6000fd5b505050506040513d601f19601f8201168201806040525081019062000894919062000c9c565b6001600160a01b03166108fc479081150290604051600060405180830381858888f19350505050158015620008cd573d6000803e3d6000fd5b505b80620008db8162000f86565b91505062000562565b505050565b336000908152600760205260409020546200090690349062000eeb565b33600090815260076020526040812091909155600480543492906200092d90849062000eeb565b9091555050565b600381815481106200094557600080fd5b6000918252602090912001546001600160a01b0316905081565b6000546001600160a01b031633146200098c5760405162461bcd60e51b8152600401620003729062000eb6565b62000998600062000b89565b565b60606003805480602002602001604051908101604052809291908181526020018280548015620009f457602002820191906000526020600020905b81546001600160a01b03168152600190910190602001808311620009d5575b5050505050905090565b6000803385858560405162000a139062000bd9565b62000a22949392919062000dc9565b604051809103906000f08015801562000a3f573d6000803e3d6000fd5b5060028054919250600062000a548362000f86565b91905055507f8a75407835e6c523aab71fd01762bc15e009f6b559ad388e51908800aee1d43b338660405162000a8c92919062000e24565b60405180910390a1600380546001810182556000919091527fc2575a0e9e593c00f959f8c92f12db2869c3395a3b0502d05e2516446f71f85b0180546001600160a01b0319166001600160a01b038316179055949350505050565b6000546001600160a01b0316331462000b145760405162461bcd60e51b8152600401620003729062000eb6565b6001600160a01b03811662000b7b5760405162461bcd60e51b815260206004820152602660248201527f4f776e61626c653a206e6577206f776e657220697320746865207a65726f206160448201526564647265737360d01b606482015260840162000372565b62000b868162000b89565b50565b600080546001600160a01b038381166001600160a01b0319831681178455604051919092169283917f8be0079c531659141344cd1fd0a4f28419497f9722a3daafe3b4186f6b6457e09190a35050565b610c088062000fe783390190565b600082601f83011262000bf8578081fd5b813567ffffffffffffffff8082111562000c165762000c1662000fba565b604051601f8301601f19908116603f0116810190828211818310171562000c415762000c4162000fba565b8160405283815286602085880101111562000c5a578485fd5b8360208701602083013792830160200193909352509392505050565b60006020828403121562000c88578081fd5b813562000c958162000fd0565b9392505050565b60006020828403121562000cae578081fd5b815162000c958162000fd0565b60008060006060848603121562000cd0578182fd5b833567ffffffffffffffff8082111562000ce8578384fd5b62000cf68783880162000be7565b9450602086013591508082111562000d0c578384fd5b62000d1a8783880162000be7565b9350604086013591508082111562000d30578283fd5b5062000d3f8682870162000be7565b9150509250925092565b60006020828403121562000d5b578081fd5b5035919050565b60006020828403121562000d74578081fd5b5051919050565b60008151808452815b8181101562000da25760208185018101518683018201520162000d84565b8181111562000db45782602083870101525b50601f01601f19169290920160200192915050565b6001600160a01b038516815260806020820181905260009062000def9083018662000d7b565b828103604084015262000e03818662000d7b565b9050828103606084015262000e19818562000d7b565b979650505050505050565b6001600160a01b038316815260406020820181905260009062000e4a9083018462000d7b565b949350505050565b6020808252825182820181905260009190848201906040850190845b8181101562000e955783516001600160a01b03168352928401929184019160010162000e6e565b50909695505050505050565b60208152600062000c95602083018462000d7b565b6020808252818101527f4f776e61626c653a2063616c6c6572206973206e6f7420746865206f776e6572604082015260600190565b6000821982111562000f015762000f0162000fa4565b500190565b60008262000f2257634e487b7160e01b81526012600452602481fd5b500490565b600081600019048311821515161562000f445762000f4462000fa4565b500290565b600181811c9082168062000f5e57607f821691505b6020821081141562000f8057634e487b7160e01b600052602260045260246000fd5b50919050565b600060001982141562000f9d5762000f9d62000fa4565b5060010190565b634e487b7160e01b600052601160045260246000fd5b634e487b7160e01b600052604160045260246000fd5b6001600160a01b038116811462000b8657600080fdfe60806040523480156200001157600080fd5b5060405162000c0838038062000c0883398101604081905262000034916200024f565b6200003f33620000a6565b815162000054906003906020850190620000f6565b5080516200006a906004906020840190620000f6565b50600180546001600160a01b0319166001600160a01b03861617905582516200009b906002906020860190620000f6565b50505050506200034f565b600080546001600160a01b038381166001600160a01b0319831681178455604051919092169283917f8be0079c531659141344cd1fd0a4f28419497f9722a3daafe3b4186f6b6457e09190a35050565b8280546200010490620002fc565b90600052602060002090601f01602090048101928262000128576000855562000173565b82601f106200014357805160ff191683800117855562000173565b8280016001018555821562000173579182015b828111156200017357825182559160200191906001019062000156565b506200018192915062000185565b5090565b5b8082111562000181576000815560010162000186565b600082601f830112620001ad578081fd5b81516001600160401b0380821115620001ca57620001ca62000339565b604051601f8301601f19908116603f01168101908282118183101715620001f557620001f562000339565b8160405283815260209250868385880101111562000211578485fd5b8491505b8382101562000234578582018301518183018401529082019062000215565b838211156200024557848385830101525b9695505050505050565b6000806000806080858703121562000265578384fd5b84516001600160a01b03811681146200027c578485fd5b60208601519094506001600160401b038082111562000299578485fd5b620002a7888389016200019c565b94506040870151915080821115620002bd578384fd5b620002cb888389016200019c565b93506060870151915080821115620002e1578283fd5b50620002f0878288016200019c565b91505092959194509250565b600181811c908216806200031157607f821691505b602082108114156200033357634e487b7160e01b600052602260045260246000fd5b50919050565b634e487b7160e01b600052604160045260246000fd5b6108a9806200035f6000396000f3fe6080604052600436106100dd5760003560e01c80638da5cb5b1161007f578063d7bb99ba11610059578063d7bb99ba146101f5578063e2ae93fb146101fd578063f2fde38b1461022a578063f3ccaac01461024a57600080fd5b80638da5cb5b146101905780639a274fff146101c2578063a4475ce4146101d557600080fd5b806363bd1d4a116100bb57806363bd1d4a146101465780636fc4434414610150578063715018a6146101665780637284e4161461017b57600080fd5b806306fdde03146100e2578063173b8edd1461010d57806336fbb27e14610130575b600080fd5b3480156100ee57600080fd5b506100f761025f565b6040516101049190610711565b60405180910390f35b34801561011957600080fd5b506101226102ed565b604051908152602001610104565b34801561013c57600080fd5b5061012260085481565b61014e610389565b005b34801561015c57600080fd5b5061012260055481565b34801561017257600080fd5b5061014e6103fa565b34801561018757600080fd5b506100f7610430565b34801561019c57600080fd5b506000546001600160a01b03165b6040516001600160a01b039091168152602001610104565b3480156101ce57600080fd5b5047610122565b3480156101e157600080fd5b506001546101aa906001600160a01b031681565b61014e61043d565b34801561020957600080fd5b506101226102183660046106e3565b60066020526000908152604090205481565b34801561023657600080fd5b5061014e6102453660046106e3565b61055e565b34801561025657600080fd5b506100f76105f9565b6002805461026c90610807565b80601f016020809104026020016040519081016040528092919081815260200182805461029890610807565b80156102e55780601f106102ba576101008083540402835291602001916102e5565b820191906000526020600020905b8154815290600101906020018083116102c857829003601f168201915b505050505081565b6000805b6009548110156103765761034d600660006009848154811061032357634e487b7160e01b600052603260045260246000fd5b60009182526020808320909101546001600160a01b03168352820192909252604001902054610606565b6007600082825461035e9190610799565b9091555081905061036e81610842565b9150506102f1565b5060075461038490806107d1565b905090565b6000546001600160a01b031633146103bc5760405162461bcd60e51b81526004016103b390610764565b60405180910390fd5b60015460405147916001600160a01b03169082156108fc029083906000818181858888f193505050501580156103f6573d6000803e3d6000fd5b5050565b6000546001600160a01b031633146104245760405162461bcd60e51b81526004016103b390610764565b61042e6000610693565b565b6004805461026c90610807565b3360009081526006602052604090205434906104c95760098054600181019091557f6e1540171b6c0c960b71a7020d9f60077f6af931a8bbf590da0223dacf75c7af0180546001600160a01b0319163390811790915560009081526006602052604090208190556104ad81610606565b600860008282546104be9190610799565b909155506105449050565b336000908152600660205260409020546104e4908290610799565b33600090815260066020526040902081905561050a906105059083906107f0565b610606565b3360009081526006602052604090205461052390610606565b61052d91906107f0565b6008600082825461053e9190610799565b90915550505b80600560008282546105569190610799565b909155505050565b6000546001600160a01b031633146105885760405162461bcd60e51b81526004016103b390610764565b6001600160a01b0381166105ed5760405162461bcd60e51b815260206004820152602660248201527f4f776e61626c653a206e6577206f776e657220697320746865207a65726f206160448201526564647265737360d01b60648201526084016103b3565b6105f681610693565b50565b6003805461026c90610807565b600080821161064a5760405162461bcd60e51b815260206004820152601060248201526f24b6b0b3b4b730b93c90373ab6b132b960811b60448201526064016103b3565b60006106576002846107b1565b905060005b80821461068c575080600261067182866107b1565b61067b9084610799565b61068591906107b1565b915061065c565b5092915050565b600080546001600160a01b038381166001600160a01b0319831681178455604051919092169283917f8be0079c531659141344cd1fd0a4f28419497f9722a3daafe3b4186f6b6457e09190a35050565b6000602082840312156106f4578081fd5b81356001600160a01b038116811461070a578182fd5b9392505050565b6000602080835283518082850152825b8181101561073d57858101830151858201604001528201610721565b8181111561074e5783604083870101525b50601f01601f1916929092016040019392505050565b6020808252818101527f4f776e61626c653a2063616c6c6572206973206e6f7420746865206f776e6572604082015260600190565b600082198211156107ac576107ac61085d565b500190565b6000826107cc57634e487b7160e01b81526012600452602481fd5b500490565b60008160001904831182151516156107eb576107eb61085d565b500290565b6000828210156108025761080261085d565b500390565b600181811c9082168061081b57607f821691505b6020821081141561083c57634e487b7160e01b600052602260045260246000fd5b50919050565b60006000198214156108565761085661085d565b5060010190565b634e487b7160e01b600052601160045260246000fdfea26469706673582212201106367ef31486e5289cb30fc319312652290ba7f2c104840c4f52bdb176769264736f6c63430008040033a2646970667358221220493fdc57f3cae2fad3b0eb37fde433b40481ad457ea776d655bd0cf53c87529564736f6c63430008040033",
  "linkReferences": {},
  "deployedLinkReferences": {}
}