{
  "_format": "hh-sol-artifact-1",
  "contractName": "Project",
  "sourceName": "contracts/Project.sol",
  "abi": [
    {
      "inputs": [
        {
          "internalType": "address payable",
          "name": "Owner",
          "type": "address"
        },
        {
          "internalType": "string",
          "name": "names",
          "type": "string"
        },
        {
          "internalType": "string",
          "name": "imag",
          "type": "string"
        },
        {
          "internalType": "string",
          "name": "des",
          "type": "string"
        }
      ],
      "stateMutability": "nonpayable",
      "type": "constructor"
    },
    {
      "anonymous": false,
      "inputs": [
        {
          "indexed": true,
          "internalType": "address",
          "name": "previousOwner",
          "type": "address"
        },
        {
          "indexed": true,
          "internalType": "address",
          "name": "newOwner",
          "type": "address"
        }
      ],
      "name": "OwnershipTransferred",
      "type": "event"
    },
    {
      "inputs": [],
      "name": "contribute",
      "outputs": [],
      "stateMutability": "payable",
      "type": "function"
    },
    {
      "inputs": [],
      "name": "currentBal",
      "outputs": [
        {
          "internalType": "uint256",
          "name": "",
          "type": "uint256"
        }
      ],
      "stateMutability": "view",
      "type": "function"
    },
    {
      "inputs": [],
      "name": "description",
      "outputs": [
        {
          "internalType": "string",
          "name": "",
          "type": "string"
        }
      ],
      "stateMutability": "view",
      "type": "function"
    },
    {
      "inputs": [
        {
          "internalType": "address",
          "name": "",
          "type": "address"
        }
      ],
      "name": "funds",
      "outputs": [
        {
          "internalType": "uint256",
          "name": "",
          "type": "uint256"
        }
      ],
      "stateMutability": "view",
      "type": "function"
    },
    {
      "inputs": [],
      "name": "getProjectBalance",
      "outputs": [
        {
          "internalType": "uint256",
          "name": "",
          "type": "uint256"
        }
      ],
      "stateMutability": "view",
      "type": "function"
    },
    {
      "inputs": [],
      "name": "getSquaredSqrtFundsSum",
      "outputs": [
        {
          "internalType": "uint256",
          "name": "",
          "type": "uint256"
        }
      ],
      "stateMutability": "nonpayable",
      "type": "function"
    },
    {
      "inputs": [],
      "name": "image",
      "outputs": [
        {
          "internalType": "string",
          "name": "",
          "type": "string"
        }
      ],
      "stateMutability": "view",
      "type": "function"
    },
    {
      "inputs": [],
      "name": "name",
      "outputs": [
        {
          "internalType": "string",
          "name": "",
          "type": "string"
        }
      ],
      "stateMutability": "view",
      "type": "function"
    },
    {
      "inputs": [],
      "name": "owner",
      "outputs": [
        {
          "internalType": "address",
          "name": "",
          "type": "address"
        }
      ],
      "stateMutability": "view",
      "type": "function"
    },
    {
      "inputs": [],
      "name": "payout",
      "outputs": [],
      "stateMutability": "payable",
      "type": "function"
    },
    {
      "inputs": [],
      "name": "projectOwner",
      "outputs": [
        {
          "internalType": "address payable",
          "name": "",
          "type": "address"
        }
      ],
      "stateMutability": "view",
      "type": "function"
    },
    {
      "inputs": [],
      "name": "renounceOwnership",
      "outputs": [],
      "stateMutability": "nonpayable",
      "type": "function"
    },
    {
      "inputs": [],
      "name": "sqsum",
      "outputs": [
        {
          "internalType": "uint256",
          "name": "",
          "type": "uint256"
        }
      ],
      "stateMutability": "view",
      "type": "function"
    },
    {
      "inputs": [
        {
          "internalType": "address",
          "name": "newOwner",
          "type": "address"
        }
      ],
      "name": "transferOwnership",
      "outputs": [],
      "stateMutability": "nonpayable",
      "type": "function"
    }
  ],
  "bytecode": "0x60806040523480156200001157600080fd5b5060405162000c0838038062000c0883398101604081905262000034916200024f565b6200003f33620000a6565b815162000054906003906020850190620000f6565b5080516200006a906004906020840190620000f6565b50600180546001600160a01b0319166001600160a01b03861617905582516200009b906002906020860190620000f6565b50505050506200034f565b600080546001600160a01b038381166001600160a01b0319831681178455604051919092169283917f8be0079c531659141344cd1fd0a4f28419497f9722a3daafe3b4186f6b6457e09190a35050565b8280546200010490620002fc565b90600052602060002090601f01602090048101928262000128576000855562000173565b82601f106200014357805160ff191683800117855562000173565b8280016001018555821562000173579182015b828111156200017357825182559160200191906001019062000156565b506200018192915062000185565b5090565b5b8082111562000181576000815560010162000186565b600082601f830112620001ad578081fd5b81516001600160401b0380821115620001ca57620001ca62000339565b604051601f8301601f19908116603f01168101908282118183101715620001f557620001f562000339565b8160405283815260209250868385880101111562000211578485fd5b8491505b8382101562000234578582018301518183018401529082019062000215565b838211156200024557848385830101525b9695505050505050565b6000806000806080858703121562000265578384fd5b84516001600160a01b03811681146200027c578485fd5b60208601519094506001600160401b038082111562000299578485fd5b620002a7888389016200019c565b94506040870151915080821115620002bd578384fd5b620002cb888389016200019c565b93506060870151915080821115620002e1578283fd5b50620002f0878288016200019c565b91505092959194509250565b600181811c908216806200031157607f821691505b602082108114156200033357634e487b7160e01b600052602260045260246000fd5b50919050565b634e487b7160e01b600052604160045260246000fd5b6108a9806200035f6000396000f3fe6080604052600436106100dd5760003560e01c80638da5cb5b1161007f578063d7bb99ba11610059578063d7bb99ba146101f5578063e2ae93fb146101fd578063f2fde38b1461022a578063f3ccaac01461024a57600080fd5b80638da5cb5b146101905780639a274fff146101c2578063a4475ce4146101d557600080fd5b806363bd1d4a116100bb57806363bd1d4a146101465780636fc4434414610150578063715018a6146101665780637284e4161461017b57600080fd5b806306fdde03146100e2578063173b8edd1461010d57806336fbb27e14610130575b600080fd5b3480156100ee57600080fd5b506100f761025f565b6040516101049190610711565b60405180910390f35b34801561011957600080fd5b506101226102ed565b604051908152602001610104565b34801561013c57600080fd5b5061012260085481565b61014e610389565b005b34801561015c57600080fd5b5061012260055481565b34801561017257600080fd5b5061014e6103fa565b34801561018757600080fd5b506100f7610430565b34801561019c57600080fd5b506000546001600160a01b03165b6040516001600160a01b039091168152602001610104565b3480156101ce57600080fd5b5047610122565b3480156101e157600080fd5b506001546101aa906001600160a01b031681565b61014e61043d565b34801561020957600080fd5b506101226102183660046106e3565b60066020526000908152604090205481565b34801561023657600080fd5b5061014e6102453660046106e3565b61055e565b34801561025657600080fd5b506100f76105f9565b6002805461026c90610807565b80601f016020809104026020016040519081016040528092919081815260200182805461029890610807565b80156102e55780601f106102ba576101008083540402835291602001916102e5565b820191906000526020600020905b8154815290600101906020018083116102c857829003601f168201915b505050505081565b6000805b6009548110156103765761034d600660006009848154811061032357634e487b7160e01b600052603260045260246000fd5b60009182526020808320909101546001600160a01b03168352820192909252604001902054610606565b6007600082825461035e9190610799565b9091555081905061036e81610842565b9150506102f1565b5060075461038490806107d1565b905090565b6000546001600160a01b031633146103bc5760405162461bcd60e51b81526004016103b390610764565b60405180910390fd5b60015460405147916001600160a01b03169082156108fc029083906000818181858888f193505050501580156103f6573d6000803e3d6000fd5b5050565b6000546001600160a01b031633146104245760405162461bcd60e51b81526004016103b390610764565b61042e6000610693565b565b6004805461026c90610807565b3360009081526006602052604090205434906104c95760098054600181019091557f6e1540171b6c0c960b71a7020d9f60077f6af931a8bbf590da0223dacf75c7af0180546001600160a01b0319163390811790915560009081526006602052604090208190556104ad81610606565b600860008282546104be9190610799565b909155506105449050565b336000908152600660205260409020546104e4908290610799565b33600090815260066020526040902081905561050a906105059083906107f0565b610606565b3360009081526006602052604090205461052390610606565b61052d91906107f0565b6008600082825461053e9190610799565b90915550505b80600560008282546105569190610799565b909155505050565b6000546001600160a01b031633146105885760405162461bcd60e51b81526004016103b390610764565b6001600160a01b0381166105ed5760405162461bcd60e51b815260206004820152602660248201527f4f776e61626c653a206e6577206f776e657220697320746865207a65726f206160448201526564647265737360d01b60648201526084016103b3565b6105f681610693565b50565b6003805461026c90610807565b600080821161064a5760405162461bcd60e51b815260206004820152601060248201526f24b6b0b3b4b730b93c90373ab6b132b960811b60448201526064016103b3565b60006106576002846107b1565b905060005b80821461068c575080600261067182866107b1565b61067b9084610799565b61068591906107b1565b915061065c565b5092915050565b600080546001600160a01b038381166001600160a01b0319831681178455604051919092169283917f8be0079c531659141344cd1fd0a4f28419497f9722a3daafe3b4186f6b6457e09190a35050565b6000602082840312156106f4578081fd5b81356001600160a01b038116811461070a578182fd5b9392505050565b6000602080835283518082850152825b8181101561073d57858101830151858201604001528201610721565b8181111561074e5783604083870101525b50601f01601f1916929092016040019392505050565b6020808252818101527f4f776e61626c653a2063616c6c6572206973206e6f7420746865206f776e6572604082015260600190565b600082198211156107ac576107ac61085d565b500190565b6000826107cc57634e487b7160e01b81526012600452602481fd5b500490565b60008160001904831182151516156107eb576107eb61085d565b500290565b6000828210156108025761080261085d565b500390565b600181811c9082168061081b57607f821691505b6020821081141561083c57634e487b7160e01b600052602260045260246000fd5b50919050565b60006000198214156108565761085661085d565b5060010190565b634e487b7160e01b600052601160045260246000fdfea2646970667358221220b4235580888e322209ccb9995f04d17367794611c5b3cee3f727cc4d3c88687764736f6c63430008040033",
  "linkReferences": {},
  "deployedLinkReferences": {}
}